:100000000C941F040C943C040C943C040C948E251A
:100010000C943C040C943C040C943C040C943C0460
:100020000C943C040C943C040C94B42A0C94872B40
:100030000C947D220C943C040C943C040C943C04E1
:100040000C943C040C943C040C943C040C943C0430
:100050000C943C040C9435230C943C040C943C0408
:100060000C943C040C943C040C943C040C943C0410
:100070000C943C040C943C040C943C040C943C0400
:100080000C943C040C943C040C943C040C943C04F0
:100090000C943C040C943C040C943C040C943C04E0
:1000A0000C943C040C943C040C943C042020202030
:1000B00000434150530057504D3A20004C61796540
:1000C000722032004C617965722031002B001400DF
:1000D0001A000800150017004C0046001C0018000C
:1000E0000C00120013002A00E000040016000700B4
:1000F00009000A002152E3000B000D000E000F0062
:100100001000280029001D001B0006001900050032
:10011000E1002C00110010003600370038003400D8
:100120003900010001000100520001004C004600AE
:100130002400250026002D002E00010001000100F2
:100140000100500051004F002152E3002100220025
:100150002300270001000100290001000100010027
:1001600001000100E1002C001E001F002000A8007B
:10017000AA00A90000AE00AF00DA0281FFD9F1DBCE
:1001800020A4A62EAF00A0C0D30000A1C8D30000B9
:10019000AED580A81F408D14200007087F080700F7
:1001A0003E5B4F5B3E003E6B4F6B3E001C3E7C3E19
:1001B0001C00183C7E3C18001C577D571C001C5E20
:1001C0007F5E1C0000183C180000FFE7C3E7FF003B
:1001D000001824180000FFE7DBE7FF0030483A066C
:1001E0000E00262979292600407F05050700407F5B
:1001F00005253F005A3CE73C5A007F3E1C1C080086
:10020000081C1C3E7F0014227F2214005F5F005FE9
:100210005F0006097F017F00006689956A006060C3
:100220006060600094A2FFA2940008047E040800AD
:1002300010207E20100008082A1C0800081C2A082C
:1002400008001E10101010000C1E0C1E0C00303880
:100250003E383000060E3E0E060000000000000092
:1002600000005F000000000700070000147F147FFB
:100270001400242A7F2A12002313086462003649DE
:1002800056205000000807030000001C2241000017
:100290000041221C00002A1C7F1C2A0008083E087E
:1002A00008000080703000000808080808000000FE
:1002B000606000002010080402003E5149453E00E5
:1002C00000427F4000007249494946002141494DA2
:1002D00033001814127F10002745454539003C4A69
:1002E0004949310041211109070036494949360081
:1002F000464949291E000000140000000040340057
:1003000000000008142241001414141414000041C9
:10031000221408000201590906003E415D594E00B1
:100320007C1211127C007F49494936003E4141410F
:1003300022007F4141413E007F49494941007F09F8
:10034000090901003E41415173007F0808087F0000
:1003500000417F4100002040413F01007F081422FE
:1003600041007F40404040007F021C027F007F042C
:1003700008107F003E4141413E007F090909060007
:100380003E4151215E007F0919294600264949490D
:10039000320003017F0103003F4040403F001F2027
:1003A00040201F003F4038403F00631408146300A2
:1003B0000304780403006159494D4300007F414123
:1003C0004100020408102000004141417F00040266
:1003D00001020400404040404000000307080000C4
:1003E0002054547840007F28444438003844444422
:1003F0002800384444287F0038545454180000081A
:100400007E09020018A4A49C78007F0804047800E8
:1004100000447D4000002040403D00007F10284403
:10042000000000417F4000007C04780478007C08D4
:1004300004047800384444443800FC18242418008C
:1004400018242418FC007C08040408004854545460
:10045000240004043F4424003C4040207C001C2035
:1004600040201C003C4030403C0044281028440000
:100470004C9090907C004464544C440000083641F9
:100480000000000077000000004136080000020173
:10049000020402003C2623263C000000000000006D
:1004A000404040F0F8F8FF38FFF8F83FF8F8FF3820
:1004B000FFF8F8F040404000000000000080C0C09D
:1004C000C0800000C0C08000000080C0C000C0C06C
:1004D000000080C0C00000000000C0C0C0C0C0005C
:1004E000C0C000000000000000000000000000008C
:1004F00000000000000000000000000000000000FC
:1005000000000000000000000000000000000000EB
:10051000000000000000000000C0F0F8FC3E1E06D5
:10052000010000007F4141417F007F4141417F0048
:100530000080C0E07E5B4F5BFEC00000C000DCD7E7
:10054000DEDEDED7DC00C00000000000000000009E
:10055000000000000000000000000000000000009B
:10056000494949FFFFFFFFE0DFBFBF00BFBFDFE03A
:10057000FFFFFFFF49494900000000001F3F606086
:10058000E0BF1F007F7F071E381E077F7F007F7F31
:100590000E1F3B716000000000007F7F0C0C0C0000
:1005A0007E7E007F7E0303007F7E03037E7E030347
:1005B0007F7E000F3E703C063C703E0F00327B4950
:1005C000493F7E007F7E0303001E3F69696F26005E
:1005D000000000000000000000030F1F3F3C787087
:1005E000600000007F4141417F007F4141417F0029
:1005F000307B7F7830202030787F3B0003000F7FF6
:100600000F0F0F7F0F00030000000000000000002C
:1006100000000000000000000000000000000000DA
:10062000010101070F0F7F0F7F0F0F7E0F0F7F0F4D
:100630007F0F0F0701010100000000000000000013
:1006400000010100000000000000000000000000A8
:10065000000000000000000000000000000000009A
:10066000000000000000000000000000000000008A
:10067000000000000000000000000000000000007A
:10068000000000000000000000000000000000006A
:10069000000000000000000000000000000000005A
:1006A000000000000000000000000000000000004A
:1006B000000000000000000000000000000000003A
:1006C000000000000000000000000000000000002A
:1006D00000000000000000000000080363006F003D
:1006E0006D0000000C0345006C00690032006300DF
:1006F00000000403090409023B00020100A0FA09FA
:10070000040000010301010009211101000122443C
:10071000000705810308000109040100010300002E
:100720000009211101000122B60007058203200003
:10073000011201000200000008EDFE0000000101AE
:1007400002000105010902A10185020901A10005BC
:10075000091901290815002501950875018102056F
:1007600001093009311581257F9502750881060937
:10077000381581257F950175088106050C0A380218
:100780001581257F950175088106C0C00501098086
:10079000A101850319012AB700150126B7009501AB
:1007A00075108100C0050C0901A101850419012AF9
:1007B000A002150126A002950175108100C0050157
:1007C0000906A1018506050719E029E7150025019D
:1007D0009508750181020507190029EF150025010B
:1007E00095F0750181020508190129059505750126
:1007F0009102950175039101C005010906A101054A
:100800000719E029E7150025019508750181029572
:1008100001750881010507190029FF150026FF0051
:10082000950675088100050819012905150025019F
:10083000950575019102950175039101C000112480
:100840001FBECFEFDAE0DEBFCDBF11E0A0E0B1E028
:10085000E8EBFDE502C005900D92AA3BB107D9F780
:1008600025E0AAEBB1E001C01D92A636B207E1F780
:100870000E9484170C94892E0C9400000E9460152D
:100880008823F9F061E080E00E9431188091DF0157
:100890009091E0010E942306882329F1813049F1DB
:1008A00061E081E00E94311860E086EB90E00E94F8
:1008B0002C190E944B1F60E20E94060660E00E9415
:1008C00011190E94601581110CC060E00E9431185E
:1008D0000E94A02081FF11C081EB90E060E00E94A7
:1008E0002C1980E0089560E084EC90E00E943E19AD
:1008F000D7CF60E08CEB90E0F9CF8CEA90E0EECFC0
:100900008230B8F46630A8F4473098F4E42FF0E071
:1009100097E0699FE00DF11D11249AE2899FE00D97
:10092000F11D1124EE0FFF1FE453FF4F85919491A9
:10093000089581E090E008950E948004089581E088
:1009400008950E949F04089581E008950E949F04E5
:1009500008950E94A604089508950E94AC04089585
:10096000A6E0B0E0E6EBF4E00C94E12D49835A8375
:100970009E833091C60189819A8131111AC03E81CE
:10098000332399F0222389F00E94170B182F682F28
:1009900089819A810E94F30A69817A81812F0E945C
:1009A0002A122696E3E00C94FD2D0E94050B182FC9
:1009B000F3CF0E94170B69817A81F1CFFC01262FBA
:1009C0004081518162817381848195810E94B0044C
:1009D0000895CF93DF93D82FC92F61E00E94DE04E2
:1009E0006D2F7C2F0E94A104DF91CF910895CF93AA
:1009F000DF93D82FC92F60E00E94DE046D2F7C2F7B
:100A00000E94AD04DF91CF91089581E008950E9486
:100A100005050895CF93C82F0E94C5098C2F0E9409
:100A200007052FEF84E39CE0215080409040E1F7E0
:100A300000C00000CF91089581E00E940A050E9445
:100A40005923089580E00E940A050E946A230895B0
:100A50000F931F93CF93DF938C0161E00E94DE041C
:100A6000EC01F8018581882319F0CE010E946C1FEA
:100A7000B801CE010E94A9048823B1F1B801CE01CA
:100A80000E940A1F882381F1B801CE010E94291B10
:100A9000882351F1B801CE010E94FE1A882321F16A
:100AA000F8018581882381F0CA35FCE7DF0739F139
:100AB00078F4C130ECE7DE07F9F0C330FCE7DF077C
:100AC000C9F0C115DC4771F0C8010E94A4040DC033
:100AD000CB35ECE7DE07B1F0CC35DC47A9F70E9457
:100AE0004B0FF2CF0E941C0580E0DF91CF911F9148
:100AF0000F9108950E945D0F0E942205F5CF0E947C
:100B0000550FE2CF0E94590FDFCF0E945A220E9458
:100B100064060E945B1A08950E9468060E945F2284
:100B200008954F925F926F927F928F929F92AF92B1
:100B3000BF92CF92DF92EF92FF920F93CF93DF930A
:100B4000CDB7DEB72A970FB6F894DEBF0FBECDBF84
:100B50006C0129833A834B835C835B0181E0A81A93
:100B6000B108D601AA0DBB1DBE83AD831C924D01F9
:100B7000E12CF12C8AE0482E512C612C712CEA14C6
:100B8000FB04B8F0C6012A960FB6F894DEBF0FBE7C
:100B9000CDBFDF91CF910F91FF90EF90DF90CF907D
:100BA000BF90AF909F908F907F906F905F904F908D
:100BB000089569817A818B819C81A30192010E94B1
:100BC000782D6D837E838F8398876D81605D8D81A5
:100BD0009E81AF81B885892B8A2B8B2B61F4E11420
:100BE000F10449F089819A81AB81BC81892B8A2BE0
:100BF0008B2B09F4602FD4016E934D0129833A8326
:100C00004B835C83BFEFEB1AFB0AB9CF0F93062F20
:100C100090910001981304C09091C001961781F043
:100C2000809300010093C001282F30E040E050E0A5
:100C300064E070E08CEB91E00E9491050F910895C3
:100C40008CEB91E0FBCF9C01892F99270097E9F06D
:100C50009C0188E0A90174E0569547957A95E1F7E3
:100C60004115510511F08C5F9A01A90156954795E0
:100C7000569547954115510511F08E5F9A013695AD
:100C80002795232B09F08F5F089580E0E3CF089527
:100C900081E008950895CF93DF93D82F0E944806EE
:100CA000C82F882319F08D2F0E944A068C2FDF91C0
:100CB000CF9108950895CF93C82F0E9447068C2F97
:100CC0000E944B06CF91089580E00E945B06089534
:100CD0000E948C200E945B060895CF930E948C2076
:100CE000C82F8091C1018C1779F0C093C1010E9477
:100CF000E9226093C2017093C3018093C401909371
:100D0000C5018C2F0E945B06CF910895ADE0B0E045
:100D1000ECE8F6E00C94E22D488759876A877B87D8
:100D20008C879D8791110E94560E1F8286E0FE01DE
:100D30003896DE01119601900D928A95E1F78D812A
:100D400081110DC029813A814B815C816D817E8149
:100D50008F810E949C0D2D96E2E00C94FE2DCE0119
:100D600001960E94E9048111EDCFF5CFFC01848149
:100D7000813021F4808191810E94490B089566237E
:100D800029F00E94971C0E946D1D08950E94F51C79
:100D9000FACFCF93C82F882399F08CEF8C0F813A2C
:100DA00088F48C2F0E943921882329F08C2F0E94EF
:100DB000DE210E94EE0E8C2F0E94C7210E94EE0EB3
:100DC000CF91089580E28C0F883048F4C77081E09D
:100DD00001C0880FCA95EAF70E94370EEFCF8BE566
:100DE0008C0F833038F42C2F2452330BC9010E940E
:100DF000CC20E6CFE8E5EC0FEB3150F4F0E0EE0F5D
:100E0000FF1FE75CFE4F808191810E94F220D8CFC6
:100E100083E38C0F8331A0F661E08C2F0E94BF0624
:100E2000CFCF882381F19CEF980F913A28F40E944C
:100E3000DE210E94EE0E089590E2980F983050F453
:100E4000877091E001C0990F8A95EAF7892F0E9477
:100E50003D0EEFCF9BE5980F933028F480E090E0B3
:100E60000E94CC20089598E5980F9B3128F480E0EB
:100E700090E00E94F220089593E3980F933118F4C4
:100E800060E00E94BF0608951F93CF93DF93182F51
:100E9000EB010E94C906209739F4812F0E941107A7
:100EA000DF91CF911F9108958FE99FE00197F1F7AE
:100EB00000C000002197EFCF60E070E0893311F4AB
:100EC00060E570E00E9444070895882321F00E94A5
:100ED000370E0E94EE0E0895882321F00E943D0EE9
:100EE0000E94EE0E0895A0E0B0E0E9E7F7E00C9470
:100EF000DC2D6C01D62FC72FFC01158106810295D0
:100F00000F700E942C0EE82E8823F9F0E12E112399
:100F1000E1F08C2F807F803461F080E28D0F88308B
:100F2000F0F08C2F807E803221F4D230C0F000238C
:100F3000B1F080913A0382FF12C082E00E941E0F3E
:100F40000E942C0E91E0E82EE926EC2FE295EF703E
:100F5000C03CB0F5F0E0E557F14D0C94B92DE12C13
:100F6000F4CF0C2F0F70C03110F00295007F1123C9
:100F700099F0002359F080E28D0F883010F0D111E4
:100F800007C0802F0E94370E0E94EE0E8D2F51C099
:100F9000802F0E94480EF8CF8D2F0E94110700234A
:100FA00079F080E28D0F883010F0D11104C0802FCD
:100FB0000E943D0E03C0802F0E944E0E0E94EE0E36
:100FC000EE2089F00E94280E80FD0DC0F6011582EA
:100FD0000E94220E0E94500AC6010E948C090E94A3
:100FE000220E0E94600ACDB7DEB7E8E00C94F82D1F
:100FF000FC2FFF70FF2EC07FC03219F0F29480EFFB
:10100000F822DD2341F0D130D1F1112309F444C09D
:101010000023F1F0BBCF80913A0382FD15C011236C
:1010200059F0FF2029F08F2D0E94370E0E94EE0EFE
:1010300080E00E94C906C4CF80E00E941107FF2013
:1010400009F4BECF8F2DB4CF112369F0011104C074
:101050008F2D0E946507B4CF013009F0B1CF8F2DDD
:101060000E946E0EADCF0111ABCF8F2D0E946C0789
:101070008F2D0E947A0E8F2D0E945D0EA1CF11231D
:1010800021F0063008F09CCFE3CF053008F098CF70
:101090008F2D0E946C0794CF0023D1F3D93349F4EC
:1010A0002FEF87EE93E0215080409040E1F700C0A1
:1010B00000008D2F0E94110783CF8C2F8695869577
:1010C0008370882369F0813009F07ACF8D2F9C2FAF
:1010D0009370111102C080E090E00E94F22070CF66
:1010E0008D2F9C2F9370111102C080E090E00E9420
:1010F000CC2066CF612F8D2F0E94BF0661CF8C2F31
:101100008370811139C0111129C04D2F4295469528
:101110004770440F440F2D2F2F7030E0042E02C073
:10112000220F331F0A94E2F780E090E0D4FF09C059
:101130008FE090E002C0880F991F4A95E2F78095F2
:101140009095C695C695C370822B932BC23071F0D3
:10115000C33079F0C13039F00E94200A0E948C20FF
:101160000E945B062DCF0E94170AF8CF0E94290A21
:10117000F5CF0E94140AF2CF112361F1C0FFEECF28
:101180004D2F429546954770440F440F2D2F2F70D9
:1011900030E0042E02C0220F331F0A94E2F780E0F1
:1011A00090E0D4FF09C08FE090E002C0880F991F43
:1011B0004A95E2F780959095C695C695C370822BA7
:1011C000932BC23069F0C33071F0C13031F00E940E
:1011D0008B0AC4CF823010F2D3CF0E94820ABECFD6
:1011E0000E94940ABBCF0E94380AB8CFCF70112357
:1011F00039F08C2F0E94500A8D2F0E946507AECFC8
:101200008D2F0E946C078C2F0E94600AA7CFD23FBF
:1012100031F170F4D03FB9F0D13FB1F1112309F4AD
:1012200051C0002309F44BC08D2F0E94C90696CFF0
:10123000D33FE1F0D43F21F11111F3CF011150C0A0
:101240008C2F8F71E1CF112341F0053008F086CF4C
:101250008C2F8F710E94720A81CF0530F7CF8C2FAF
:101260008F711111D1CF0E94500A78CF112329F02C
:101270008C2F8F710E94440A71CF0E943F0A6ECF5B
:1012800080913A0382FD06C08C2F8F71112309F4DF
:10129000BBCFE9CF112349F0CF718C2F0E94500AA8
:1012A00063E08C2F0E94000F59CF81E00E941E0F37
:1012B000023008F453CF82E00E941E0F4FCF8C2FD4
:1012C0008F71D1CF002309F4BBCFD93349F4EFEFAD
:1012D000F7EE23E0E150F0402040E1F700C00000CD
:1012E0008D2F0E9411073ACF0F931F93CF93DF9357
:1012F000EC01688179818D810E94560B8C010E94DE
:101300009D0A0E94130AB801CE010E947307DF9163
:10131000CF911F910F910895CF93DF93EC018C81B2
:10132000882399F0CE010E942805811111C00E94E6
:101330002C0E882351F08D81882339F080913A0357
:1013400082FF03C082E00E941E0FDF91CF910895BB
:10135000CE010E947409CE010E94F704F6CF80E00E
:1013600090E00E94CC2080E090E00E94F2200E9459
:10137000560E0E94EE0E0E948A1D0E946D1D089559
:101380000E94F5210E94AF0908950E94450E0E9417
:10139000C0090895282F92959F70963091F060F4BF
:1013A000925F9F70923030F481E0203F79F030F40A
:1013B000283E30F080E008959A5FF3CF243FD1F7C4
:1013C000089581E0283EE0F3213FF9CF0895FC0124
:1013D0008481882339F0808191810E94490B0E9489
:1013E000CA09089580E00895A6E0B0E0EAEFF9E0C8
:1013F0000C94E22D2696E2E00C94FE2DA7E0B0E0DE
:10140000E4E0FAE00C94E22D2796E2E00C94FE2D45
:1014100008950E94080A08950E94090A9093E20123
:101420008093E101089508950E940C0A0895209187
:10143000E1013091E201822B932B0E940C0A089566
:101440002091E1013091E201822393230E940C0A52
:1014500008952091E1013091E201822793270E94B3
:101460000C0A08950E94080A08950E94320A0895FD
:101470000E94350A9093E0018093DF01089580E097
:1014800090E00E94380A089521E030E0A90102C0EE
:10149000440F551F8A95E2F7CA010E94380A089541
:1014A00021E030E002C0220F331F8A95E2F78091DD
:1014B000DF019091E001822B932B0E94380A08955E
:1014C00021E030E002C0220F331F8A95E2F7209519
:1014D00030958091DF019091E001822393230E9457
:1014E000380A089521E030E002C0220F331F8A95A8
:1014F000E2F78091DF019091E001822793270E941B
:10150000380A08952091DF013091E001822B932B5E
:101510000E94380A08952091DF013091E001822372
:1015200093230E94380A08952091DF013091E00151
:10153000822793270E94380A089508959B016770B7
:1015400091E001C0990F6A95EAF763E03695279517
:101550006A95E1F7220F331F220F331FFA01E20FC2
:10156000F31F40E050E0682F70E08191DF01119798
:101570009B01042E02C0369527950A94E2F721704C
:1015800021952827292328272C934F5F5F4F44302C
:10159000510559F708959C01982F977083E036956F
:1015A00027958A95E1F7220F331F220F331FFB0186
:1015B000E20FF31F40E050E080E0219130E0092E7F
:1015C00002C0369527950A94E2F721703327042E3E
:1015D00001C0220F0A94EAF7822B4F5F5F4F44301D
:1015E000510559F70895282F862F963068F4273033
:1015F00058F4622F70E027E0929F600D711D112456
:1016000047EC51E00E949E0A0895292F963068F415
:10161000873058F490E067EC71E037E0239F800D4D
:10162000911D11240E94CB0A089580E00895A0E046
:10163000B0E0EDE1FBE00C94DB2D8C01E090DF01EC
:10164000F090E0018091E1019091E201E82AF92A0D
:10165000CFE0D0E0CC24C394D12CC6010C2E02C024
:10166000880F991F0A94E2F78E219F21892B49F454
:10167000219798F7B12C8B2DCDB7DEB7E9E00C940C
:10168000F72DBC2EB8018C2F0E943612019781F3E2
:10169000F2CFCF93DF93D82FC92F0E94170B6D2F56
:1016A0007C2F0E943612DF91CF9108951F93CF9324
:1016B000DF93162FD72F9091C601992341F0862FE3
:1016C000972F0E94490BDF91CF911F910895882396
:1016D00081F0862F972F0E94170BC82F682F812F1C
:1016E0009D2F0E94F30A612F7D2F8C2F0E943612AE
:1016F000EACF862F972F0E94050BC82FF4CF0F93A8
:101700001F93CF93E091E301C7E08091E4018E1332
:1017100004C0CF911F910F9108950E2F10E0CE9F1E
:10172000F0011124EB51FE4F208131814281538120
:101730006481758186810E94FE09F8013196E77007
:10174000E4CF20911D0230911E0240911F02509162
:1017500020026091210270912202809123020E9456
:10176000FE09089580912302803178F4809122024D
:10177000882359F0E091E3012091E40130911E02A9
:1017800040911D0257E02E1301C008956E2F70E0A6
:101790005E9FF0011124DF01AB51BE4F14968C9176
:1017A0001497882361F111968C911197831327C0A8
:1017B0008C91841324C015968C91159781111FC0AC
:1017C00012968D919C91A0911F02B09120028A1BCC
:1017D0009B0B883C910598F4809123028F70806167
:1017E00080932302E551FE4F80818F70806180835A
:1017F0008DE192E00E948C090E947F0B0895FB010D
:101800003196E770C0CFE091E3019091E40127E0C9
:10181000E91302C080E00895AE2FB0E02E9FF001E2
:101820001124EB51FE4F3181361306C0308138133D
:1018300003C03581341304C0FD013196E770E8CF51
:1018400081E008958F929F92AF92BF92DF92EF92C4
:10185000FF920F931F93CF93DF93CDB7DEB72D97F2
:101860000FB6F894DEBF0FBECDBF8C0186E0F80145
:10187000DE01189601900D928A95E1F7F801E0805B
:10188000F580A280B38084819DE1892E92E0992E1B
:101890009091210291111BC0882309F4FCC0FF2004
:1018A00009F43DC1C8010E94E709882309F437C142
:1018B00087E0F801D40101900D928A95E1F7C40107
:1018C0000E94B6060E94B20B0E94A10BE4C0D09009
:1018D000220220911F0230912002A501421B530BCE
:1018E000DD2009F4DBC0483C510508F0A6C0882380
:1018F00009F4D1C090911E02918080912302803121
:1019000008F06BC0991228C090911D029E1124C04E
:10191000F1105DC08F708061809323020E94A10B43
:101920008DE192E00E948C0980912302F801868368
:10193000F12C8F2D2D960FB6F894DEBF0FBECDBFC4
:10194000DF91CF911F910F91FF90EF90DF90BF90AB
:10195000AF909F908F900895F11039C040E0692DAD
:101960008E2D0E94030C40E0692D8E2D0E94030CE9
:10197000F82E8111DDCF888599850E94490B292F8A
:1019800022952F70903450F49F70223080F099236C
:1019900099F0F8019681903178F4CBCF2A5F2F70BF
:1019A000223078F0C8010E948C09FD2CC2CF992307
:1019B00019F0882309F4BDCF805E883008F4B9CFD0
:1019C000F1CF803F08F4B5CF815F8230F7CF8091AF
:1019D0002302816080932302ABCF991207C09091BC
:1019E0001D029E1103C0FF2009F479C0C8010E94A6
:1019F000E709882309F493C0FF2009F490C080917F
:101A00002302803288F020911D0230911E023A8319
:101A10002983BC82AB82909121029D831E828F8399
:101A2000CE0101960E948C0987E0F801ADE1B2E099
:101A300001900D928A95E1F745CF90912302903164
:101A4000A0F4488559856A857B858C859D850E9493
:101A5000F4098DE192E00E948C0987E0F401119273
:101A60008A95E9F70E94A10B63CF8823A1F020910A
:101A70001E0281812813BACF80911D028E11B6CF2C
:101A8000F110B4CF9683C8010E948C0987E0F4015D
:101A900011928A95E9F7FF24F3944BCF483C510506
:101AA00008F041C08823B9F3FF20C9F190911E02CC
:101AB000818198132AC080911D028E1126C08091C9
:101AC000230280FD19C08031B8F08683807F803F7B
:101AD00039F08681982F907F905F8F70892B868355
:101AE000C8010E948C0987E0F801ADE1B2E00190E5
:101AF0000D928A95E1F7E8CE87E0F801ADE1B2E01A
:101B000001900D928A95E1F7C6CFC8010E94E709BE
:101B100081118ACF80912302816080932302C801C2
:101B20000E948C09B8CF488559856A857B858C854C
:101B30009D850E94F40991CFAEE0B0E0E2EAFDE0BD
:101B40000C94E12D288739874A875B876C877D87CE
:101B50008E87CE0108960E94220C8823B1F06C85F6
:101B6000662341F0288539854A855B857D858E858C
:101B70000E94FE0917E08091E3019091E40189132E
:101B80003EC02E96E3E00C94FD2D87E0FE013896D2
:101B9000DE01119601900D928A95E1F72091E40102
:101BA0004091E3018C85882329F330E0C901019637
:101BB0008770992750E08417950799F097E0929FD6
:101BC000D001939FB00D1124AB51BE4FFE01319651
:101BD00001900D929A95E1F78093E4010E947F0BAA
:101BE000C9CF0E94C5091092E4011092E30187E079
:101BF000EDE1F2E0DF011D928A95E9F7BBCF189F76
:101C0000C00111248B519E4F0E94220C882309F49D
:101C1000B8CFE091E3011E9FF0011124EB51FE4F7C
:101C200020813181428153816481758186810E9446
:101C3000FE098091E30190E00196877099278093D7
:101C4000E30199CF80914C028695869586950895FB
:101C500080914C028770089590914C02977081E0BA
:101C6000911101C080E008958091780208959091CB
:101C70007802982B909378020895982F90958091F0
:101C8000780289238093780208951092780208954B
:101C900090917702982B909377020895982F9095C2
:101CA00080917702892380937702089510927702BA
:101CB000089508950E94590E089590914D02292F7C
:101CC0002823222331F08095892380934D020E949E
:101CD0005A0E089508950E946A0E089590914E023A
:101CE000292F2823281729F0982B90934E020E9421
:101CF0006B0E089590914E02292F2823222331F054
:101D00008095892380934E020E946B0E08958091E6
:101D10004E02882329F010924E0280E00E946B0E42
:101D20000895CF93DF93C091780280917702C82BFA
:101D3000D0914E02DD2331F00E94182181110E94C2
:101D4000870ECD2B8C2FDF91CF910895CF93DF930A
:101D5000C0910301D09104010E94910E8883C0912B
:101D60000301D091040148E050E064E472E0CE0148
:101D70000E94212E892B59F088E0FE01A4E4B2E0F4
:101D800001900D928A95E1F7CE010E94A320DF9188
:101D9000CF910895CF93DF93C0910101D0910201BB
:101DA0000E94910E8983C0910101D091020140E20D
:101DB00050E064E272E0CE010E94212E892B59F09E
:101DC00080E2FE01A4E2B2E001900D928A95E1F773
:101DD000CE010E94AE20DF91CF910895809138010D
:101DE000882339F08091390387FF03C00E94CA0E0F
:101DF00008950E94A60E089508950E94FC0E08956D
:101E000090913A0392FF11C098E0899F90011124AC
:101E1000622B60934C020E94500A80914C0286957E
:101E2000869586950E94FD0E08950E94500A089599
:101E300010924C0280E00E94FD0E089590914C0299
:101E40008095892380934C02282F277021110DC083
:101E5000891759F090913A0392FF07C086958695AD
:101E600086950E94600A0E94180F089590913A0387
:101E700092FB222720F9281769F080FB92F99093B2
:101E80003A038091390390913A030E947E0F82E0D9
:101E90000E941E0F089580913A0382FB882780F9E3
:101EA00091E089270E94360F089581E00E94360F45
:101EB000089580E00E94360F08956FEF7FEF80E075
:101EC00090E00E94732E089580E090E00E943F2EE3
:101ED0009C0181E0263E3E4F09F080E0089582E0BB
:101EE00090E00E94372E089583E090E00E94372E04
:101EF000089584E090E00E943F2E0895BC0184E0A4
:101F000090E00E94732E0895AB01BC018FE090E039
:101F10000E94672E0895AB01BC0183E190E00E940E
:101F2000672E089560E070E0CB010E948B0F08954A
:101F300060E070E0CB010E94840F0E94920F089530
:101F4000A8E0B0E0E6EAFFE00C94E22D66EE7EEF5A
:101F500080E090E00E94732E60E082E090E00E94BA
:101F6000552E81E090E09093E2018093E10161E0E1
:101F700083E090E00E94552E60E074E184E090E000
:101F80000E94732E60E086E090E00E94552E60E093
:101F900087E090E00E94552E40E050E0BA0188E0D2
:101FA00090E00E94672E60E084E290E00E94552E4F
:101FB00060E087E190E00E94552E60E08CE090E0C8
:101FC0000E94552E60E08DE090E00E94552E19820F
:101FD0001A821B821C821D821E821F82188648E084
:101FE00050E068E170E0CE0101960E94452E40E08D
:101FF00050E0BA0180E290E00E94672E0E94980FA4
:102000002896E2E00C94FE2D0E94A00F0895682F00
:102010008EE090E00E94552E0895A6E0B0E0E3E146
:10202000F0E10C94E02D0E94DD228C018091790278
:1020300090917A028017910779F019821A820E9492
:10204000DD22BC0149815A8180E090E00E94860631
:1020500010937A02009379022696E4E00C94FC2D0A
:102060000E946413609385027093860280938702B6
:10207000909388026093810270938202809383021E
:10208000909384020895089508950E94431008953E
:1020900008950E944810089581E0089587E993E12A
:1020A0000E9491170E9444100E94451008950E94BA
:1020B00060150895089508950E945A100E945B10BB
:1020C00008950E94640F811102C00E9404100E94B2
:1020D0006F0F809389020E94790F90933A03809347
:1020E00039030E94E11A0E94740F90E00E94140AC2
:1020F0008091DF019091E0010E94350A08950E94CD
:10210000D4220E942E130E9466150E94AA140E94D7
:1021100061100E945A060E94E41A80E00E94DE17B5
:102120000E9478150E94491008950E94601581113F
:102130000E94811F0895A6E0B0E0E1EAF0E10C946E
:10214000D92D0E944C1081110EC00E940D100E94CA
:1021500095100E94791A0E94AB1D0E946D0626966A
:10216000EBE00C94F52D0E94CE148BE7A82E82E0B4
:10217000B82E750110E0F70101917F01812F0E94B7
:10218000A1131F5F163009F449C00817A1F380910D
:10219000890281FD0E94A7130E945710C82E00E0FB
:1021A00099249394802F0E94A113182FF5019191E7
:1021B0005F01891739F1D82ED926F12CEE24E3944A
:1021C0008D2D8E218823B1F0CC20A1F0F9820A83D5
:1021D0000E94DD229C838B839D8291E0812F8E2142
:1021E000811101C090E049815A816B817C818D8190
:1021F0000E948606F394EE0CF7E0FF12E1CFF501A2
:10220000319710830F5F063069F60E9430100E94EC
:1022100095100E94791A0E9444199DCF0813B7CFD8
:1022200094CF1F93CF93DF930E943B12EC01811553
:1022300022E5920708F053C0811540E5940708F0A5
:10224000DDC0803E9105F8F48D3C910508F0AEC0EC
:10225000883A910580F4853A910508F099C081305B
:10226000910521F00497813A910550F4CE01DF9158
:10227000CF911F910895885A91094B9708F48BC00C
:10228000C0E0D0E0F3CF811550E49507F8F4C11514
:1022900080E2D80708F0CBC0C83ED10538F3CE01A4
:1022A0009A9581159F4160F78D2F0E94DF12182F9C
:1022B000CE0199270E943B12212F30E0322F222796
:1022C000E901CC27DF71C82BD92BD0CF99270E94E9
:1022D0003B12CC27DF70C82BD92BD06AC7CF8038F0
:1022E00042E59407C8F5803652E5950708F067C0C7
:1022F000C03482E5D807B0F08C2F8695869587701C
:1023000020E2829FC0011124C37021E030E0A901C6
:1023100002C0440F551FCA95E2F7EA01C82BD92B1A
:10232000DC68A4CFC03252E5D50708F041C08C2F3D
:102330008695869520E2829FC0011124C37021E01A
:1023400030E0A90102C0440F551FCA95E2F7EA0127
:10235000C82BD92BDD688ACF803C52E5950760F405
:102360008F71C03AD24508F03FC090E0982F88277F
:10237000EC01C46FD06A7ACF805C9245809708F0F8
:102380007FCFDC2FCC27CC27DF71C06FD06A6ECF18
:10239000A497D0646BCFC85AD0E0CC0FDD1FC159D1
:1023A000DE4F0990D881C02DD46460CFD0655ECF58
:1023B000CF71D0E0DC2FCC27C16FD06A57CF869584
:1023C0008695877020E2829FC0011124C37021E0AE
:1023D00030E0A90102C0440F551FCA95E2F7EA0197
:1023E000C82BD92BDA6842CF0E94DF12C82FD0E069
:1023F000DC2FCC27CC27DF71D06238CF8F710E94C1
:10240000DF1265E0D695C7956A95E1F7CF70D0E009
:10241000DC2FCC27282F30E084FF05C054E0220FAA
:10242000331F5A95E1F7C22BD32BD0691FCF8D2FC5
:102430008F710E94DF12182FCE0199270E943B1244
:10244000212F30E0322F222722273F71282B392BD2
:10245000E901D2CF462F672F763028F4473018F4A1
:102460000E949C04089580E090E008950E942A1242
:102470000E9411110895803E9105D1F1C8F4813375
:10248000910509F47FC048F48932910509F46FC0C1
:102490008A32910509F47DC0089589339105E1F0F0
:1024A00082389105C9F08533910509F45BC0089520
:1024B000843E9105D1F148F4823E910531F1833E8D
:1024C000910541F181EE90E00895863E9105C1F1BC
:1024D000873E9105E1F10895209139032370211180
:1024E00065C020913A0323FF14C089E290E008956B
:1024F0002091390320FD43C030913A0330FF09C0D9
:1025000024FF4EC080E090E008952091390322FD21
:10251000F7CF08952091390322FD45C030913A0349
:1025200030FD44C024FFF5CFEDCF20913A0321FFC9
:10253000F0CF8091390384FDE5CF87EE90E00895D8
:102540002091390323FFE5CF24FDDCCFF6CF209186
:10255000390323FD2EC030913A0331FFE3CF84EEDF
:1025600090E008952091390325FFD3CFBECF20916D
:10257000390325FD21C020913A0323FFCACF89E307
:1025800090E008952091390326FFC3CF8AE290E0BE
:1025900008952091390326FFBCCF81E390E0089590
:1025A00083EE90E0089582EE90E0089580EE90E052
:1025B000089586EE90E0089585E390E0AACF90918B
:1025C000390392FF10C041E0282F2471243009F014
:1025D00040E031E0282F2871283009F030E043171F
:1025E00011F02CE0822793FF10C041E0282F2471C6
:1025F000243109F040E031E0282F2871283109F01A
:1026000030E0431711F02CE0822730913A0330FF7D
:1026100010C051E0282F2171213009F050E041E035
:10262000282F2871283009F040E0541711F029E0D4
:10263000822731FF10C041E0282F2171213109F09C
:1026400040E031E0282F2871283109F030E04317AD
:1026500011F029E0822794FD877E089510923B03B4
:1026600010923C0310923D0310923E030895CF92C6
:10267000DF92EF92FF92CF93DF9300D000D0CDB7DF
:10268000DEB76B017C010E946015811112C00E94AF
:10269000E92269837A838B839C83C61AD70AE80A66
:1026A000F90AC0923B03D0923C03E0923D03F092C2
:1026B0003E030F900F900F900F90DF91CF91FF90FE
:1026C000EF90DF90CF900895A4E0B0E0EAE6F3E168
:1026D0000C94E22D0E946015882371F00E94E9227B
:1026E00069837A838B839C8369817A818B819C81C6
:1026F0002496E2E00C94FE2D0E94E92269837A83FD
:102700008B839C8380913B0390913C03A0913D037C
:10271000B0913E0329813A814B815C81280F391F9A
:102720004A1F5B1F29833A834B835C83DDCF80E0A4
:10273000089508950E949913089508950E949D1385
:102740000895E82FF0E0EA5BFC4F8081089508953A
:1027500080EA8A95F1F7089500C008950E94A813B1
:10276000089508950E94B1130895EF92FF921F9368
:10277000CF93DF9300D00F92CDB7DEB70E946015E4
:10278000182F60914C03882309F443C01A821982E0
:102790001B82862F90E09E012F5F3F4F7901B90188
:1027A0008A5B9C4F0E9486158823E1F080913F034D
:1027B00090E043E050E0B7018A5B9C4F0E94212EDD
:1027C00021E020938A02892BC1F410E00E949E131D
:1027D000812F0F900F900F90DF91CF911F91FF905D
:1027E000EF90089580918A02882379F383E0F701BE
:1027F00011928A95E9F710928A02E0913F03F0E086
:10280000EA5BFC4F89819A81AB8180839183A283AB
:10281000DDCF70E06A5B7C4F80913F0390E08A5B84
:102820009C4F0E940F160E94B213D2CFF894E82F4B
:10283000E295EF70F0E041A18F7021E030E0B90146
:1028400002C0660F771F8A95E2F7CB01962F90950D
:10285000942391A392A1892B82A3789408950F9336
:102860001F93CF93DF9386EF0E94161487EF0E9489
:10287000161481E30E941614C5EAD1E00CEA11E0B7
:1028800089918F3F11F00E9416140C171D07C1F794
:10289000DF91CF911F910F910895A0E0B0E0E3E5A3
:1028A000F4E10C94DC2DEC01D62E062F10E0C801CB
:1028B00084559E4F7C01FC0180818F3F09F445C007
:1028C000F894E82FE295EF70F0E091A18F7021E08D
:1028D00030E001C0220F8A95EAF7892F822B81A36D
:1028E00082A12095282322A378940E94AC13E5EAC4
:1028F000F1E091E0C12C81918F3F81F0A82FA2954A
:10290000AF70A05EB0E02C9130E08F7002C03595C2
:1029100027958A95E2F72170892F211180E0C82A36
:10292000990F81E0EC3AF80731F7F70180818F3F8A
:1029300011F00E94161461E0C11001C060E08D2DFD
:102940000E94AE13C00FD11FC882CDB7DEB7E8E03A
:102950000C94F82D809105018091050190E0811182
:1029600001C093E090934C0383E0891B80933F0365
:102970000E942F1486E0E6E4F3E0DF01982F1D9219
:102980009A95E9F7E0E4F3E0DF011D928A95E9F713
:1029900083E00E9412150E949A130895A6E0B0E009
:1029A000E4EDF4E10C94E02D1A821982FE013396D5
:1029B00084E0DF011D928A95E9F760E08E010F5FE8
:1029C0001F4FC8010E944D1461E0C8010E944D14C0
:1029D00062E0C8010E944D1446E050E0B80180E476
:1029E00093E00E94212E21E0892B99F420E0609150
:1029F0004C0370E06A5B7C4F43E080E493E00E940C
:102A00001315182F0E94B513812B2696E4E00C9421
:102A1000FC2D86E0F801A0E4B3E001900D928A95C8
:102A2000E1F7E5CF0895A0E0B0E0E9E1F5E10C942D
:102A3000DC2DD82EE92EF62ED72F042FC22F2223DD
:102A400079F081E080938D020E94DD2290938C02C8
:102A500080938B0280E0CDB7DEB7E8E00C94F82DD0
:102A6000C0908D02CC20B1F380918B0290918C02AA
:102A70000E940623059770F310E0A8016D2D7E2DAE
:102A80008F2D9D2F0E94212E892B41F0A8016D2DA5
:102A90007E2D8F2D9D2F0E942E2ECC2D10928D02DB
:102AA0008C2FD9CFCF930E94372DC82F811102C010
:102AB0000E94322D8C2FCF9108958091910208951C
:102AC0008091900208950E94601508950E94521509
:102AD000809390020E946315809391020E945D157D
:102AE000809305010E94601581110E94BC15089514
:102AF0000E946015811102C00E94BF15089581E0F7
:102B0000909192029A3008F080E008950F931F93FD
:102B1000CF93DF93EC01162F072F809192028A301A
:102B200090F4612F702FCE010E940C16811121C0EC
:102B3000809192028F3FB1F40E94DD2290938F0228
:102B400080938E0209C080918E0290918F020E9424
:102B50000623843F914028F780E0DF91CF911F91B9
:102B60000F9108958F5F809392028A3028F781E059
:102B7000F4CF10929202FBCF0E94462508950E9446
:102B800049250895A0E0B0E0E8ECF5E10C94DC2DD7
:102B9000FA0169017801C82F880FDD0B3097B1F079
:102BA000DE0193E0AA0FBB1F9A95E1F7AA5FBE4F23
:102BB00011968D919C9112978D569D4F4C9150E09E
:102BC000E417F50708F4AF010E942E2ECE010E94F3
:102BD0003426182F8823D1F0E114F104B9F083E0F2
:102BE000CC0FDD1F8A95E1F7FE01EA5FFE4F4381BE
:102BF00050E0E416F50608F4A701CA5FDE4F6C81C9
:102C00007D816D567D4FC6010E942E2E812FCDB73E
:102C1000DEB7E8E00C94F82D0E94271708950E9473
:102C200040170895A8E0B0E0E8E1F6E10C94E02D4B
:102C30008091A6029091A702A091A802B091A9024A
:102C4000BC01CD010E94152311E064367105810598
:102C5000910520F10E946413DC01CB010296A11DB5
:102C6000B11D89839A83AB83BC8300E010E020E030
:102C700030E044E050E0BE016F5F7F4F82E00E9491
:102C8000C215182F882351F00E94E9226093A602F2
:102C90007093A7028093A8029093A902812F28968F
:102CA000E4E00C94FC2D8F929F92AF92BF92CF9252
:102CB000DF92FF920F931F93CF93DF93CDB7DEB7D1
:102CC00028970FB6F894DEBF0FBECDBF6B01A09062
:102CD000AF01B090B00101E010E09E012C5F3F4FCA
:102CE00040E050E060E070E080E00E94C215F82E05
:102CF000882309F454C045018FEF881A980A8091FF
:102D0000A2029091A302A091A402B091A502BC01DD
:102D1000CD010E9415236D837E838F83988764364F
:102D200071058105910558F103E010E09E012F5FC8
:102D30003F4F40E050E060E070E081E00E94C2154B
:102D4000182F63E070E0C4010E94E51A9C8198137B
:102D500026C0112321F10E94E9226093A202709300
:102D6000A3028093A4029093A50289819A81AB81EA
:102D700080939F029093A002A093A10211C063E0F0
:102D800070E0C4010E94E51A9C818913CDCFF50142
:102D900081819281A38189839A83AB83E6CFF12CD1
:102DA00080919F029091A002A091A102F6018083E0
:102DB0009183A2838F2D28960FB6F894DEBF0FBEA5
:102DC000CDBFDF91CF911F910F91FF90DF90CF90FA
:102DD000BF90AF909F908F900895A0E0B0E0E3EF98
:102DE000F6E10C94DA2DF82EE92EB62EA72E8A01E4
:102DF0000E947F15CC24C394D12C882319F08AE03B
:102E0000C82ED12CC1E0D0E06B2D7A2D8F2D9E2DB8
:102E1000F8010995811116C02196CC16DD0694F0B3
:102E2000CC9FC001CD9F900D900D112420E030E08B
:102E300045E34A95F1F700002F5F3F4F2817390708
:102E4000B9F7E2CFCDB7DEB7EAE00C94F62D0F93D9
:102E50001F93CF93DF93D82FC92F8B0143E556E102
:102E60000E94ED16882339F042E156E1B8018D2F1A
:102E70009C2F0E94ED16DF91CF911F910F91089525
:102E80000F931F93CF93DF93FB01C091AF01D091BC
:102E9000B001CE01019623E0DC0101900D922A954C
:102EA000E1F763E070E00E94E51A88836C817D8120
:102EB0008E819F8100919B0210919C0220919D0226
:102EC00030919E02601771078207930751F060935B
:102ED0009B0270939C0280939D0290939E020E949D
:102EE0003713DF91CF911F910F9108950E940C2805
:102EF0000E947F100E94192808950E941E280E9497
:102F00009B100E94382808950E9476220E94F22782
:102F10000E944E100E9476170E947D170E945C103E
:102F2000FBCF9093BB018093BA010895AB0124E6D7
:102F300030E0BC0188E70E9400249C0181E0232B43
:102F400009F080E00895AB0124E630E0BC0188E799
:102F50000E944B249C0181E0232B09F080E008951E
:102F60000F931F93AC019B0104E610E060E488E737
:102F70000E9498249C0181E0232B09F080E01F919E
:102F80000F9108950E94CA23089508950E94C517BD
:102F90000895EDE4F3E080E092E0DF019C011D92F2
:102FA00021503040E1F7F0935405E09353058FEF43
:102FB0009FEF9093D6028093D5020895A5E0B0E0EC
:102FC000E4EEF7E10C94E22D0E94C5170E94C617AB
:102FD00090E280FF90E88093D1029093D0020E940B
:102FE000C2176BE070E08FE891E00E94A317811197
:102FF00006C01D828D812596E2E00C94FE2D809105
:10300000D10265E070E081FD29C08AE891E00E946C
:10301000A317882371F36DE070E088E791E00E94C8
:10302000A3178D83882329F30E94E922DC01CB01B9
:10303000805A9541AF4FBF4F80934F0590935005F5
:10304000A0935105B09352050E94C91781E0809367
:10305000D4028093D3021092D202CCCF85E891E0C3
:10306000D6CF2091D00236E0839FC0011124269F45
:10307000800D911D1124811522E0920714F080E04B
:1030800090E0835B9C4F9093540580935305089583
:103090002091530530915405275433404091D0027C
:1030A000642F70E0C9010E94502D481B463010F477
:1030B000240F311D211582E0380710F020E030E0A8
:1030C000235B3C4F30935405209353050895CF93D1
:1030D000DF93982FC62F81E09A3019F09D3031F49C
:1030E00080E00E94DE18DF91CF9108952091530572
:1030F0003091540586E0F901AAEAB2E001900D9200
:103100008A95E1F7903EB8F086E0F90111928A9530
:10311000E9F7C1111CC0C0915305D091540546E098
:1031200050E0BE018AEA92E00E94212E892BE9F448
:103130000E944818D8CFF6E09F9FB0011124665630
:103140007E4F46E050E0C9010E94182EE2CFE09188
:103150005305F09154059F012A5F3F4F2E173F07FB
:10316000D1F2808180958193F9CFCD54D340CE01A7
:1031700025E0969587952A95E1F721E030E0A901B1
:1031800002C0440F551F8A95E2F7CA014091D5024B
:103190005091D602842B952B259645E0D695C79560
:1031A0004A95E1F702C0220F331FCA95E2F7822B3E
:1031B000932B9093D6028093D502BACFCF93382F1A
:1031C000E0915305F0915405ED54F3402091D00265
:1031D000622F70E0CF010E94502D281B822F3323D5
:1031E00069F066E00E94442DC82FC15010F4CF91C1
:1031F000089560E080E20E946718F7CF9F01280FD2
:10320000311D2115324018F080E0E0E0F0E08E0F33
:103210009F2F911D835B9C4F909354058093530582
:10322000E6CFFF920F931F93CF93DF93EC01F62E1F
:10323000FC0101900020E9F78F0101501109C0172E
:10324000D10728F0CDB7DEB7E5E00C94FB2D6F2D4C
:1032500089910E946718F3CF1F93CF93DF93EC01FE
:10326000162FFE018491811104C0DF91CF911F912F
:103270000895612F0E9467182196F3CF0E942C19A0
:1032800081E00E94DE180895A4E0B0E0EAE4F9E1EC
:103290000C94E22D8091D402811106C08091D3025A
:1032A0002496E2E00C94FE2D0E94E922DC01CB0181
:1032B000805A9541AF4FBF4F80934F059093500573
:1032C000A0935105B09352058091D3028111E6CFAE
:1032D00062E070E086E791E00E94A3178823F1F294
:1032E00081E08093D302DACFA4E0B0E0EAE7F9E12D
:1032F0000C94D22D8C838091D5029091D602892B8B
:10330000E9F08091D4028823C9F08091D202811122
:1033100015C00E94441910E01B8244244394512C90
:1033200000E267E0F62E8091D5029091D6020097D8
:1033300029F0112351F0FC81F11107C02496E2E13C
:103340000C94EE2D2B812F5F2B833B81C32ED12C30
:10335000520102C0AA0CBB1C3A95E2F79501282342
:103360003923232B79F38091D10280FD3DC0960152
:103370003695279536952795922F8B818295880FC4
:1033800080763FE1380F8093200120932301309312
:1033900021019093240167E070E08EE191E00E94AA
:1033A0009617882359F2C60125E0880F991F2A95A0
:1033B000E1F72091D10220FD20C060E270E0835B44
:1033C0009C4F0E94B017882309F4B8CFA094B09402
:1033D0008091D5029091D6028A219B219093D602AA
:1033E0008093D5021F5F9FCF8B81880F880F880F36
:1033F00037E0380F20E093E0C6CFA0EBB2E0E02F3B
:103400001D92EA95E9F725EB31E03A83298361EBD8
:1034100071E0E981FA81A191FA83E983FB012191AD
:10342000BF01280F392F311DA901435B5C4F1A01E1
:10343000EA2FF0E0E055FD4F20E030E06F2C621AFB
:10344000842C022E01C0880C0A94EAF76101912CA9
:10345000D601ED906D01E820462D4919477050E0E6
:10346000BE2D042E01C0BB0F0A94EAF77B2E5195A6
:10347000419551094770552701C0E6944A95EAF7EE
:10348000EB2A4081E42AE082939448E09412E0CF52
:103490002F5F3F4F31962830310581F6A9EBB1E01F
:1034A000E981FA81AE17BF0709F0B3CF60E270E09F
:1034B00080EB92E086CF8091D3029091D40291115B
:1034C00003C091E089270895882369F062E070E0E5
:1034D00084E791E00E94A317811103C08091D30279
:1034E00008951092D3028091D302EBCF0E943E0444
:1034F0000895A4E0B0E0EFE7FAE10C94E22D8091AA
:10350000D4028823D1F180914D0590914E050E94FF
:103510000623C29760F00E94DD2290934E058093AF
:103520004D0560E080E00E9431180E94761A80E02C
:103530000E9474198091D3028823F9F00E94E92235
:1035400069837A838B839C8380914F05909150058A
:10355000A0915105B091520529813A814B815C813E
:10356000281B390B4A0B5B0BDA01C9018F3F9F4FB8
:10357000AF4FBF4710F40E945B1A2496E2E00C9410
:10358000FE2D0E945D0F08950E945D1580E00E944F
:10359000A113817008950E94CE142FEF86E791E069
:1035A000215080409040E1F700C000000E94CE14FE
:1035B0000E94C41A882321F00E94C11A0E94592334
:1035C00008950E94CB1A08950895FC01680F791F91
:1035D0008FEF91E3E617F70709F408952191822709
:1035E00028E030E087FF08C0880F89272150310983
:1035F00021153105B9F7EECF880FF8CFCF93DF93C0
:10360000EB0186319C4719F50E94340E9D81992368
:10361000A1F08A7A91E0811101C090E09093D702E5
:10362000882349F085E30E94C7210E94EE0E80E0C6
:10363000DF91CF91089589E2F6CF8091D702882358
:1036400021F085E30E94DE21F0CF89E2FBCF81E00B
:10365000EFCFCF93DF93EC01FB018581882309F441
:10366000D2C09E0130572332310508F0B2C00E940B
:10367000790F90933A0380933903FE01E150F047AC
:10368000E232F10520F4E956F14D0C94B92D809108
:10369000390381608093390393C080913A03886035
:1036A00080933A038DC0809139038260F3CF80917B
:1036B00039038460EFCF809139038860EBCF80912C
:1036C0003A038160EDCF80913A038260E9CF809127
:1036D00039038061DFCF809139038062DBCF809135
:1036E00039038064D7CF0E94C5098091390380686F
:1036F000D1CF809139038C60CDCF80913A03836024
:10370000CFCF809139038E7FC5CF80913A03877FD9
:10371000C7CF809139038D7FBDCF809139038B7FD7
:10372000B9CF80913903877FB5CF80913A038E7FDF
:10373000B7CF80913A038D7FB3CF809139038F7ECD
:10374000A9CF809139038F7DA5CF809139038F7BDD
:10375000A1CF0E94C509809139038F779BCF8091BB
:103760003903837F97CF80913A038C7F99CF8091E3
:10377000390382FB992790F921E0922790FB82F987
:1037800090FB83F987CF80913A03982F90959170A1
:103790008E7F892B90FB81F983CF90913903892FFC
:1037A0008F7B96FF806476CF0E94C5099091390384
:1037B000892F97FB87F980586DCF81E00E94071011
:1037C0008091390390913A030E947E0F0E94C509AF
:1037D00080E0DF91CF91089580E0F0CF90913903A0
:1037E000892F8F7E94FF806155CF90913903892F67
:1037F0008E7F90FF81604ECF90913A03892F877F13
:1038000093FF88604DCF81E0E4CF282F35EB230371
:10381000C001112497FF04C080589109892F089591
:1038200080589F4FFBCF8091DE0280FF0DC06091DA
:103830002A0170E0660F771F60387105C0F56115C9
:103840007105B9F1862F089581FF07C060912A01A3
:1038500084E0689FB0011124EFCF82FF04C0609123
:103860002A0188E0F6CF8091DD028823E9F090916B
:10387000290160912A0170E0891730F093E0660F0A
:10388000771F9A95E1F7D8CF869F9001879F300DDB
:10389000112483E0220F331F8A95E1F7692F70E02E
:1038A000C9010E94642DC8CF68E070E0CBCF8FE7DC
:1038B000089581E008958091DE0280FF0CC0609140
:1038C000260170E075956795759567956115710589
:1038D00061F1862F089581FF06C06091260170E096
:1038E00075956795F3CF6091260170E082FD15C054
:1038F0002091DC022223B1F09091250160912601F4
:1039000070E0291750F4269FA001279F500D112425
:10391000692F70E0CA010E94642D60387105B0F211
:103920008FE7089561E070E0D4CF81E00895909131
:10393000E1022091E202922B2091E402922B20914D
:10394000E302922B992331F098E09093DD0291E00D
:103950009093DC028D3C31F40E94131C819580937E
:10396000E2020895E2E3E80FE231B0F5F0E0E75457
:10397000F14D0C94B92D0E94131CF1CF0E94131C21
:1039800081958093E10208950E94131CFACF0E9452
:103990005B1C8093E30208950E945B1C8195F9CF24
:1039A0000E945B1C81958093E40208950E945B1C39
:1039B000FACF815D990B21E030E001C0220F8A959A
:1039C000EAF78091E002822B8093E00208958091D3
:1039D000DE0281608093DE0208958091DE028260C3
:1039E000F9CF8091DE028460F5CF4091E1028D3CF9
:1039F00059F48091E20287FF0DC01092E202442345
:103A000059F41092DD0208C08E3C81F48091E202EC
:103A100018169CF3442381F08091E3029091E40214
:103A2000892B811159C01092DC0208958F3C41F41A
:103A300047FFF0CF1092E1028091E2028823E0CFAD
:103A4000803D19F41416B4F3E5CF9091E302893D5B
:103A500029F41916FCF61092E302DCCF8A3D19F422
:103A600097FFD8CFF8CF9091E4028B3D29F497FFD0
:103A7000D1CF1092E402CECF8C3D19F41916CCF3BD
:103A8000C9CF9FE2980F983090F4815D990B21E0A7
:103A900030E0B90102C0660F771F8A95E2F7CB01CB
:103AA00080959091E00289238093E002B3CF8D3D11
:103AB00031F48091DE028E7F8093DE02ABCF8E3DAB
:103AC00021F48091DE028D7FF7CF8F3D09F0A2CFE8
:103AD0008091DE028B7FF0CF08950E94DD2220913D
:103AE000E1023091E202232B222321F08093DA02BB
:103AF0009093DB022091E3023091E402232B2223F6
:103B000021F08093D8029093D9028FED92E00E9429
:103B1000BD20089586E0EFEDF2E0DF011D928A9569
:103B2000E9F71092DD021092DC021092DE02089595
:103B3000FC01828181110DC0838181110AC08481C1
:103B4000811107C081E09581911101C080E08170F1
:103B5000089581E0FCCFA6E0B0E0E1EBFDE10C943C
:103B6000DF2D86E0EFEDF2E09E012F5F3F4FD901A0
:103B700001900D928A95E1F71092E1021092E20213
:103B80001092E3021092E4028B819C81892B8901BF
:103B9000882391F08091DA029091DB020E94062343
:103BA0009C018091DD028823C9F140912B0150E0F6
:103BB0004217530708F43FC08D819E81892B8823CB
:103BC00099F08091D8029091D9020E9406239C011D
:103BD0008091DC02882309F467C04091270150E0FE
:103BE0004217530708F46EC0B8018FED92E00E94AF
:103BF0000F22811105C08FED92E00E94981D811166
:103C00000E946D1D86E0F801AFEDB2E001900D92CB
:103C10008A95E1F72696E5E00C94FB2D40912C0166
:103C20009AE0499FA00111244217530728F68F5F9D
:103C30008093DD0202C08F3FD1F7FB80FF2059F057
:103C40000E94131C91E01F140CF09FEF899F802DA0
:103C500011248093E102FC80FF2059F00E94131C84
:103C600091E01F140CF09FEF899F802D1124809309
:103C7000E2028091E102882309F49ECFF090E202F3
:103C8000FF2009F499CF0E94051C811101C081E039
:103C90008093E1028F2D0E94051C882319F08093E8
:103CA000E2028ACF81E0FBCF409128019AE0499F50
:103CB000A00111244217530708F096CF8F5F80931D
:103CC000DC0202C08F3FD1F7FD80FF2059F00E9437
:103CD0005B1C91E01F140CF09FEF899F802D112435
:103CE0008093E302FE80FF2059F00E945B1C91E06C
:103CF0001F140CF09FEF899F802D11248093E40204
:103D00008091E302882309F46FCFF090E402FF2052
:103D100009F46ACF0E94051C811101C081E08093E3
:103D2000E3028F2D0E94051C882319F08093E40282
:103D30005BCF81E0FBCF0F931F93CF93DF93C42F13
:103D4000D22FFC0185818823C9F04093E7020E94AD
:103D5000DD229093E6028093E50280E28C0F8830AA
:103D600040F4C77081E001C0880FCA95EAF70E944D
:103D70006507DF91CF911F910F9108951091E70290
:103D800014133CC08091E5029091E6020E94062344
:103D9000883C910598F5C0E2CD0F1D1741F180E2F6
:103DA000810F883040F4177081E001C0880F1A95A8
:103DB000EAF70E946C07C83020F0802F0E945C0751
:103DC000D8CF91E08D2F877001C0990F8A95EAF7BF
:103DD000892F0E946507802F0E945C07D77081E0C1
:103DE00001C0880FDA95EAF70E946C07C2CF802FD6
:103DF0000E945C07C83008F0BCCFF0CF80E28C0F87
:103E0000883008F0B6CFC77081E001C0880FCA952E
:103E1000EAF7EACF0F93FC01CB01E851FC47E7300A
:103E2000F10590F5E553F14D0C94B92D06E221EE24
:103E300041EE6AE17CE70E949B1E80E00F910895AD
:103E400007E225EE45EE6BE17CE7F5CF06E221EED9
:103E500040EE68E17CE7EFCF07E225EE44EE69E152
:103E60007CE7E9CF06E221EE42EE6CE17CE7E3CFAE
:103E700007E225EE46EE6DE17CE7DDCF08E221E0CA
:103E800045EE6EE17CE7D7CFFB0185818111109271
:103E9000E70281E0D3CF8091250308959C019A9594
:103EA00081159F4468F43327C9010497849778F0FB
:103EB0002B52310981E02E30310550F080E0089519
:103EC0002F3F310589F380F320E030E0F1CF81E02E
:103ED00008950E944E1F08950E94691F882381F053
:103EE000E091EE02F0E0EE0FFF1FE151FD4F808107
:103EF00091818F3F2FE7920719F00196918380837C
:103F000008954F925F926F927F928F929F92AF929D
:103F1000BF92CF92DF92EF92FF92CF93DF93CDB714
:103F2000DEB729970FB6F894DEBF0FBECDBFC090A5
:103F3000EF02D090F0020D2C000CEE08FF0820914B
:103F40002D0130E0EFEEF2E081E090E032962817AC
:103F500039070CF0D0C08091210390912203A091E9
:103F60002303B0912403BC01CD010E9415232B0132
:103F70003C0190912D0199879601A701F7FE04C09D
:103F800020E030E040E050E0A0E6BAEE0E94BF2D15
:103F900069837A838B839C83B985A8ECBA9F90014F
:103FA0001124032E000C440B550B240D351D461D0A
:103FB000571DA5E0B0E00E94BF2D6D837E838F83E7
:103FC000988769817A818B819C812D813E814F8187
:103FD00058850E94782D49015A01213F310541053C
:103FE000510528F030EF832E912CA12CB12C99ECA7
:103FF000491651046104710414F18091EE0290E0BD
:10400000019669E170E00E94642D8093EE02880FB2
:10401000991FFC01E151FD4F118210828985883181
:1040200008F087E18F5F80932D010E94E922609361
:104030002103709322038093230390932403A2E02F
:10404000CA16D104E104F1041CF4812C912C540112
:104050008091EA029091EB02A091EC02B091ED0206
:10406000BC01CD010E9415236B017C0195E6C916A8
:10407000D104E104F10484F00E94E9226093EA0291
:104080007093EB028093EC029093ED0280912503F4
:104090008093E9028092E802A091E902AD83A091A9
:1040A000E8028D81A81BBB0BA70196010E94CA2DB7
:1040B00069837A838B839C8324E630E040E050E080
:1040C0000E949A2D9D81920F9093250329960FB6F9
:1040D000F894DEBF0FBECDBFDF91CF91FF90EF9080
:1040E000DF90CF90BF90AF909F908F907F906F9018
:1040F0005F904F90089540815181052E000C660B12
:10410000770BC40ED51EE61EF71E01961FCF9093A7
:104110002C0380932B0308950E946015811103C026
:10412000809126030895E0912B03F0912C033097A2
:1041300029F00190F081E02D0995089580E008951F
:104140000E948C200895E0912B03F0912C0330976E
:1041500021F00280F381E02D09950895DC01E091C2
:104160002B03F0912C03309739F086E08C93048078
:10417000F581E02DCD0109950895DC01E0912B0337
:10418000F0912C03309739F082E08C930680F78110
:10419000E02DCD0109950895A3E0B0E0E2EDF0E255
:1041A0000C94E22D9C018091290390912A0382179F
:1041B0009307A1F030932A0320932903E0912B0366
:1041C000F0912C03309751F083E089833B832A835D
:1041D0000084F185E02DCE01019609952396E2E059
:1041E0000C94FE2DA3E0B0E0E8EFF0E20C94E22D99
:1041F0009C01809127039091280382179307A1F0D7
:104200003093280320932703E0912B03F0912C0394
:10421000309751F084E089833B832A830084F185C1
:10422000E02DCE01019609952396E2E00C94FE2D37
:1042300020910301309104012E5F3F4F809138019E
:104240008823A9F08091390387FF11C020910101D3
:10425000309102012E5F3F4F9DE180E0F9014081E6
:104260002F5F3F4F41118F5F9150C0F7089595E048
:10427000F4CF882321F190913801992311F1909185
:10428000390397FF1EC0982F969596959695803F77
:10429000B0F4E0910101F0910201E90FF11D2281DA
:1042A00030E0877041E050E0BA0102C0660F771F2E
:1042B0008A95E2F72623372381E0232B91F480E0CF
:1042C00008952091030130910401F9013296285F8D
:1042D0003F4F9191981721F0E217F307D1F7EFCFF5
:1042E00081E008959C01FC0132968FEF90E04191AE
:1042F000461751F08F3F19F4411101C0892F9F5F7C
:104300009630A9F78F3F09F40895280F311D87FDD6
:104310003A95F901628308959C01FC013296285F69
:104320003F4F8191861303C0DF0111971C92E21762
:10433000F307B9F70895FC01862F86958695869533
:10434000603F60F4E80FF11D677021E030E001C0CC
:10435000220F6A95EAF78281822B82830895FC01FD
:10436000862F869586958695603F80F4E80FF11D2F
:10437000677081E090E09C0102C0220F331F6A95B4
:10438000E2F7B90160958281682362830895682FFE
:1043900080913801882359F08091390387FF07C045
:1043A00080910101909102010E949B2108958091CA
:1043B0000301909104010E9472210895682F809159
:1043C0003801882359F08091390387FF07C0809115
:1043D0000101909102010E94AF2108958091030193
:1043E000909104010E948C210895809138018823C6
:1043F00079F08091390387FF0BC0E0910101F091C2
:10440000020132968EE1DF011D928A95E9F7089547
:10441000E0910301F0910401329686E0F4CFDC01D3
:10442000FB0111969C9111978181981322C01296DD
:104430008C911297882319F0928189131AC01396D0
:104440008C911397882319F09381891312C01596C4
:104450008C911597882319F0958189130AC01496B9
:104460009C91992321F081E02481291303C080E0ED
:1044700001C081E08170089508950E943C22089552
:104480008F5F80932D030E943D22089583E08093E7
:104490002D030E943D2208950E944022089581E04C
:1044A00080932D030E943D2208950E944F2208957B
:1044B000089508950E9459220895089508950E942C
:1044C00058220895CF930E945D220E94CE140E942C
:1044D0005E22C0E08C2F0E94A113811105C0CF5F26
:1044E000C630C1F7CF91089581E0FCCF85B78068D1
:1044F00085BF85B7806885BF08951F921FB61F923C
:1045000011248F939F93AF93BF9380912E038111BA
:1045100013C08091550590915605A0915705B09113
:1045200058054196A11DB11D8093550590935605E0
:10453000A0935705B0935805BF91AF919F918F916C
:104540001F901FBE1F90189580915D05843031F13A
:104550000E94850510922E0388E190E020E40FB6BA
:10456000F894A895809360000FBE2093600083B7F5
:10457000817F846083BF83B7816083BF789488958F
:1045800083B78E7F83BF0FB6F894A89580916000A3
:10459000886180936000109260000FBE08950E94B1
:1045A000C5090E948C05089582E084BD93E095BD05
:1045B0009AEF97BD80936E0008952FB7F89480917D
:1045C000550590915605A0915705B09158052FBFFC
:1045D0000895A4E0B0E0EFEEF2E20C94E22D8FB784
:1045E000F89420915505309156054091570550910A
:1045F000580529833A834B835C838FBF69817A8115
:104600008B819C812496E2E00C94FE2D9C014FB797
:10461000F8948091550590915605A0915705B09159
:1046200058054FBF821B930B0895A4E0B0E0EBE167
:10463000F3E20C94E02D462F572FBC012FB7F894CE
:104640008091550590915605A0915705B091580558
:104650002FBF8C019D01041B150B260B370BC901C5
:10466000B8012496E4E00C94FC2D78941F921FB6B8
:104670001F9211248F939F93AF93BF938091550501
:1046800090915605A0915705B09158050196A11D2E
:10469000B11D8093550590935605A0935705B0938F
:1046A0005805BF91AF919F918F911F901FBE1F9092
:1046B000189587E797E7909301088093000888E1B1
:1046C0009AE00FB6F894A895809360000FBE90937F
:1046D0006000FFCF88E19AE00FB6F894A895809328
:1046E00060000FBE90936000FFCFFF920F931F9367
:1046F000CF93DF93182FEB011092BC0084EA8093D4
:10470000BC000E94DD22082FF92E8091BC0087FF9B
:1047100028C08091B900887F883029F08091B90045
:10472000887F8031A1F51093BB0084E88093BC00A2
:104730000E94DD22182F092F8091BC0087FF1FC027
:104740002091B900287F80E090E0283199F081E045
:1047500090E0203411F480E090E0919581959109EA
:1047600009C0802F9F2D0E940623C817D90768F61D
:104770008EEF9FEFCDB7DEB7E5E00C94FB2D812FD8
:10478000902F0E940623C817D907B0F6F1CF8FEFFC
:104790009FEFF0CF1092B9008CE08093B80008959D
:1047A0000F931F93CF93DF93EB018093BB0084E8BB
:1047B0008093BC000E94DD22182F092F8091BC003D
:1047C00087FF11C02091B900287F81E090E0283256
:1047D00011F480E090E0919581959109DF91CF915E
:1047E0001F910F910895CF3FDC0741F3812F902F48
:1047F0000E940623C817D90708F78EEF9FEFEECF68
:10480000A0E0B0E0E6E0F4E20C94D72D782E5B0156
:104810006A0189010E94DD224C010431110560F119
:104820000F3F100769F1C80164E170E00E94502D4C
:10483000F62EE72E6F2D7E2D872D0E947523EC011D
:1048400097FF09C00F3F1007A9F3C4010E94062378
:104850000817190778F77501CA0CDB1CEC14FD0466
:1048600011F0D7FF10C084E98093BC00CE01CDB712
:10487000DEB7EDE00C94F32DFF24F394E12CDACFB6
:1048800085E0F82EFBCFB801F70181917F010E94EE
:10489000D023EC01E3CFA0E0B0E0E1E5F4E20C943A
:1048A000D72D782E5B016A0189010E94DD224C011F
:1048B0000431110560F10F3F100769F1C80164E18F
:1048C00070E00E94502DF62EE72E6F2D7E2D872D45
:1048D0000E947523EC0197FF09C00F3F1007A9F351
:1048E000C4010E9406230817190778F77501CA0C3E
:1048F000DB1CEC14FD0411F0D7FF10C084E9809399
:10490000BC00CE01CDB7DEB7EDE00C94F32DFF2453
:10491000F394E12CDACF85E0F82EFBCFF7018491F8
:10492000B8010E94D023EC01FFEFEF1AFF0AE1CF9C
:10493000A0E0B0E0EEE9F4E20C94D62D682E962EBD
:104940005A01690178010E94DD22782E892E0431F6
:10495000110530F10F3F100731F1C80164E170E03B
:104960000E94502D162F072F612F702F862D0E9429
:104970007523EC0197FF19C0FFEFEF16FF06A1F3B7
:10498000872D982D0E940623E816F90668F784E91A
:104990008093BC00CE01CDB7DEB7EEE00C94F22DD3
:1049A00011E000E0E1CF15E0FCCFB701892D0E94B6
:1049B000D023EC018501CA0CDB1C0C151D0539F355
:1049C000D7FDE5CFB701F80181918F010E94D02377
:1049D000EC01F3CF8EE14A9B03C081508111FBCFE4
:1049E0004A9BFECF08955A9880E28A95F1F75A9A29
:1049F0000895FC013BE03A95F1F798E020E080E073
:104A000031E040E14A95F1F7880F4A9B02C081608E
:104A1000232742E04A95F1F7000040E14A95F1F77B
:104A200091509111EECF90E19A95F1F799B132E062
:104A30003A95F1F7000040E14A95F1F792FB99278A
:104A400090F992272081920F90830895A1E0B0E021
:104A5000ECE2F5E20C94DE2D19828C017C01E60E6D
:104A6000F11C0E151F0541F481E09981911180E040
:104A70002196E6E00C94FA2D0E94EA24CE010196DC
:104A80000E94F924F80181938F01EBCF529A5A9A30
:104A9000089552985A9AEA9AE9E6F0E080818F7C6C
:104AA000808308956150770B91E001C0990F6A955A
:104AB000EAF7692F90E021E0611108C0992399F08D
:104AC0005A9A80E28A95F1F75A980895362F38233A
:104AD000332339F05A9A922730E23A95F1F76695E6
:104AE000EBCF5A98F9CF5A98ECCFFF920F931F93C0
:104AF000CF93DF93EC018C01060F111DC017D10776
:104B000029F4CDB7DEB7E5E00C94FB2DF9900E94B7
:104B1000F32468E08F2D0E945225F0CF1F920F9250
:104B20000FB60F9211240F931F932F933F934F9320
:104B30005F936F937F938F939F93AF93BF93EF9305
:104B4000FF93CF93DF930F92CDB7DEB719820E9408
:104B5000EA24CE0101960E94F924082F06950695B5
:104B60000695982F92959570202F2570920F292FDA
:104B7000237096959695920F982797708981892B27
:104B800081115CC0043008F059C080E18A95F1F7CA
:104B90005A9A529A82E08A95F1F700C05A9888E0B2
:104BA000089F80011124D801AA5FBE4F1696ED918F
:104BB000FC9117973097A9F06091AF017091B00107
:104BC00014962D913C911597260F371F11968D91B4
:104BD0009C911297680F791F13964C9113978C91A3
:104BE0000995F801EA5FFE4F6381662351F0209139
:104BF000AF013091B00184819581820F931F0E9493
:104C000075250E94F32480E18A95F1F75A9852980D
:104C10005A9A80E18A95F1F7F801EA5FFE4F6081C8
:104C2000662351F02091AF013091B00181819281D2
:104C3000820F931F0E9426250E94EA240F90DF9185
:104C4000CF91FF91EF91BF91AF919F918F917F9104
:104C50006F915F914F913F912F911F910F910F9005
:104C60000FBE0F901F9018950F931F93CF93DF9354
:104C70008C0104970CF065C0F894529A5A9885E01C
:104C80008A95F1F70000C02FC695C570802F8570FA
:104C9000C80F8C2F8370C695C69593E0000F111F27
:104CA0009A95E1F7C80FC8018C2BEC010E94F32400
:104CB00000C068E08C2F0E94522590E19A95F1F790
:104CC00052985A9A4A9B35C087E090E04A9933C07F
:104CD000F801EA5FFE4F6381662361F02091AF0126
:104CE0003091B00184819581820F931F0E94262507
:104CF000882321F10E94EA2480E28A95F1F75A98EC
:104D0000529A90E19A95F1F7F801EA5FFE4F6081BF
:104D1000662351F02091AF013091B00181819281E1
:104D2000820F931F0E9475250E94F324789481E0DE
:104D300009C000C0C7CF0197009749F4529A5A9A08
:104D4000789480E0DF91CF911F910F91089500C07A
:104D5000BDCF809137030895282FCB01BA01309140
:104D60005D053430E1F42F702093E9002FEF30918E
:104D7000E80035FD07C035ED3A95F1F70000215008
:104D80002111F5CF2091E80025FF09C040E050E057
:104D90000E94B0288091E8008E778093E800089503
:104DA000BC0143E050E082E00E94AC260895BC01C3
:104DB00046E050E082E00E94AC260895BC0140E24B
:104DC00050E082E00E94AC260895CF93DF93D82F65
:104DD000C92F48E050E0682F792F81E00E94AC266F
:104DE00088E0ED2FFC2FAFE2B3E001900D928A95A1
:104DF000E1F7DF91CF91089580915C05811109C0A1
:104E00000E94382A0E94952A8091E2008460809353
:104E1000E200089510925C0508950E944F220895C3
:104E20006091590581E0611101C080E00E94462235
:104E3000089590915D0581E0943009F080E06091E3
:104E400059050E944C22089542E061EC81E00E94E5
:104E5000B42942E261EC82E00E94B42990915D05A0
:104E600081E0943009F080E0609159050E94402271
:104E7000089580915F05893089F148F4823009F402
:104E8000A0C0833009F45AC0813041F008958A30BF
:104E900009F487C08B3009F46CC0089580915E05D9
:104EA000813A09F04AC08091E800877F8093E8004A
:104EB0008091620590916305892B61F060E080E04C
:104EC00090E070E00E94FF288091E8008B7780934B
:104ED000E800089568E08FE293E0F3CF80915E05EB
:104EE000813259F58091620590916305029728F50A
:104EF0008091E800877F8093E8008091E80082FF3E
:104F000018C09091F3008091F200029731F48091E3
:104F1000F100813011F0863021F48091F10080930E
:104F200037038091E8008B778093E8000E94E8299E
:104F300004C080915D058111E0CF089580915E05E8
:104F4000813AD9F78091620590916305892BA9F781
:104F50008091E800877F8093E8008091E80080FFDF
:104F6000FCCF809138018093F1008091E8008E772A
:104F7000DBCF80915E05813201F7809162059091CF
:104F80006305892BD1F68091E800877F8093E80044
:104F90000E94E82980916005809338010E94C5092C
:104FA000089580915E05813241F68091E800877F07
:104FB0008093E8000E94E82980916105809338037E
:104FC000089580915E05813A09F0B7CF8091E8009D
:104FD000877F8093E8008091E80080FFFCCF80917C
:104FE0003803C1CF84B7877F84BF0FB6F894A895E4
:104FF00080916000886180936000109260000FBE15
:1050000080E890E00FB6F89480936100909361007F
:105010000FBE0E94552208950E94382A0E94952AA8
:10502000E2EEF0E080818460808378940E94182D05
:1050300008958EE291E00E948720089580915D0599
:10504000853031F480915D05853019F00E94CF22C2
:1050500008950E94A42280915B05882399F30E9401
:105060006222882379F30E949A280E94C509EACF18
:1050700008959A0140916405509165050E94412868
:105080000895AC01CB01D901252F332723303105F9
:10509000E1F058F421303105C9F122303105D9F160
:1050A00080E090E020E030E01EC02132310521F1A7
:1050B00022323105A9F7892BC1F16130710581F7E1
:1050C00086EB90E023E437E00EC0CA019927413017
:1050D00069F08230910569F0E2EFF6E0892B01F783
:1050E000849190E09F012D933C930895E4EEF6E0C7
:1050F000F7CFEAEDF6E0F4CF892B91F0613071053E
:1051000079F689E090E021E237E0EDCF82E190E0AE
:1051100021E337E0E8CF8BE390E026EF36E0E3CF02
:1051200089E090E028E037E0DECF84E490E029EFEA
:1051300037E0D9CF80E189BD82E189BD09B400FEA5
:10514000FDCF8091D8008F7D8093D8008091E000C2
:1051500082608093E0008091E00081FDFCCF0895A3
:10516000AF92BF92CF92DF92FF920F931F93CF9394
:10517000DF936C01EB018A010E94072AF82E81114E
:1051800023C00115110539F0F80180819181C81BF8
:10519000D90BC80ED91EA12CB12C2097A9F0809153
:1051A000E80085FD22C08091E8008E778093E800BA
:1051B00001151105A1F0F801808191818A0D9B1DD7
:1051C0009183808385E0F82E8F2DDF91CF911F9101
:1051D0000F91FF90DF90CF90BF90AF9008950E9405
:1051E000072A8823E1F2F82EEFCFF60181916F01B3
:1051F0008093F1002197FFEFAF1ABF0ACECFFC01D9
:105200009B0180916405909165058617970718F0BA
:10521000672B61F0C90140E0009771F441110CC0A7
:105220008091E80082FF35C080E008958091E80019
:105230008E778093E800EECF20915D052223A9F1BF
:105240002530A9F12091E80023FD2DC02091E80030
:1052500022FDE6CF2091E80020FFDECF3091F30061
:105260002091F200009719F02830310558F041E004
:105270002830310509F040E02091E8002E77209396
:10528000E800CACF41914093F10001972F5F3F4F53
:10529000E9CF80915D05882341F0853041F0809110
:1052A000E80083FFBDCF81E0089582E0089583E0A8
:1052B0000895FC019B018091640590916505861716
:1052C000970718F0672B61F0C90140E0009771F46F
:1052D00041110CC08091E80082FF36C080E0089543
:1052E0008091E8008E778093E800EECF20915D05F5
:1052F0002223B1F12530B1F12091E80023FD2EC029
:105300002091E80022FDE6CF2091E80020FFDECFCB
:105310003091F3002091F200009719F02830310508
:1053200058F041E02830310509F040E02091E800D4
:105330002E772093E800CACF44914093F100319634
:1053400001972F5F3F4FE8CF80915D05882341F0A3
:10535000853041F08091E80083FFBCCF81E0089563
:1053600082E0089583E00895982F973028F08F7099
:105370008093E90081E008959093E900242F762F2F
:1053800050E0981731F07091EC002091ED005091B1
:10539000F00021FD02C09F5FE8CF3091EB003E7F1F
:1053A0003093EB003091ED003D7F3093ED00309174
:1053B000EB0031603093EB007093EC002093ED0034
:1053C0005093F0002091EE0027FDE5CF80E0089596
:1053D00080915E0587FF13C08091E80082FF06C0C0
:1053E0008091E8008B778093E80004C080915D0590
:1053F0008111F2CF089580915D058823D9F38091C2
:10540000E80080FFF8CF8091E8008E77ECCF209104
:10541000E4003091E50095E6A9018091EC008170EF
:10542000882331F08091E80080FF06C080E0089575
:105430002091E80022FD1BC080915D05882391F03A
:10544000853091F08091EB0085FD10C02091E40043
:105450003091E5004217530701F391509111DCCFD1
:1054600084E0089582E0089583E0089581E008953E
:105470000E94A72A0E94AF2AE0EEF0E080818160BE
:105480008083E8EDF0E080818F77808319BCA7ED01
:10549000B0E08C918E7F8C9380818F7E8083109280
:1054A0005C0508950F931F93CF93DF930E94A72A63
:1054B0000E94AF2AC8EDD0E088818F7788838881E9
:1054C0008068888388818F7D888319BC10925D05F0
:1054D0001092590510925B0510925A0500EE10E0EB
:1054E000F80180818B7F808388818160888342E09E
:1054F00060E080E00E94B429E1EEF0E080818E7FE0
:105500008083E2EEF0E0808181608083808188602A
:105510008083F80180818E7F808388818061888389
:10552000DF91CF911F910F910895E8EDF0E0808118
:105530008F7E8083E7EDF0E080818160808384E06E
:1055400082BF81E080935C050E94522A0895E8EDB5
:10555000F0E080818E7F80831092E20008951092A7
:10556000DA001092E10008951F920F920FB60F9289
:1055700011242F933F934F935F936F937F938F9358
:105580009F93AF93BF93EF93FF938091E10082FFCE
:105590000BC08091E20082FF07C08091E1008B7F09
:1055A0008093E1000E94172D8091DA0080FF19C0DE
:1055B0008091D80080FF15C08091DA008E7F8093A3
:1055C000DA008091D90080FF94C080E189BD82E13A
:1055D00089BD09B400FEFDCF81E080935D050E9486
:1055E000FC268091E10080FF19C08091E20080FFDD
:1055F00015C08091E2008E7F8093E2008091E200EE
:1056000080618093E2008091D80080628093D8000E
:1056100019BC85E080935D050E9410278091E10010
:1056200084FF29C08091E20084FF25C080E189BD0C
:1056300082E189BD09B400FEFDCF8091D8008F7D45
:105640008093D8008091E1008F7E8093E10080916B
:10565000E2008F7E8093E2008091E200816080937F
:10566000E20080915905882309F449C084E08093C1
:105670005D050E9419278091E10083FF29C0809178
:10568000E20083FF25C08091E100877F8093E100E5
:1056900082E080935D05109259058091E1008E7F34
:1056A0008093E1008091E2008E7F8093E200809100
:1056B000E20080618093E20042E060E080E00E94CE
:1056C000B4298091F00088608093F0000E940D273B
:1056D000FF91EF91BF91AF919F918F917F916F91CA
:1056E0005F914F913F912F910F900FBE0F901F90A0
:1056F000189519BC10925D050E940A2772CF8091FF
:10570000E30087FF02C083E0B2CF81E0B0CF1F92F9
:105710000F920FB60F921124FF920F931F932F93A6
:105720003F934F935F936F937F938F939F93AF9329
:10573000BF93CF93DF93EF93FF9309EE10E0F8014F
:105740008081C091EC00C795CC27C7958F70FC2E47
:10575000F82A1082C0EFD0E08881877F8883789410
:105760000E94D02BF8011082888188608883CF2D19
:10577000CF70C083FF91EF91DF91CF91BF91AF9137
:105780009F918F917F916F915F914F913F912F9159
:105790001F910F91FF900F900FBE0F901F901895C3
:1057A000AAE2B0E0E6EDFBE20C94E12D8EE595E097
:1057B000FC0101962091F100208325E086369207B6
:1057C000B9F70E9439278091E80083FF38C08091A3
:1057D0005E0590915F059A3090F5E92FF0E0EE526A
:1057E000F14D0C94B92D803889F0823841F58091C3
:1057F00062058F70873018F58093E9008091EB0087
:1058000085FB882780F91092E90006C080915A052F
:1058100090915B05911182609091E800977F909341
:10582000E8008093F1001092F1008091E8008E77FB
:1058300023C0811116C080916005813011F18091E3
:10584000E80083FF0AC08091E800877F8093E8002A
:105850008091EB0080628093EB00AA96E3E00C94C9
:10586000FD2D823061F780916005882389F01092C8
:10587000E9008091E800877F8093E8000E94E82992
:10588000DECF81E0933009F080E080935B05EFCFBD
:10589000809162058F702FEF280F263080F680935D
:1058A000E9002091EB0020FFE2CF933031F48091AA
:1058B000EB0080628093EB00DACF9091EB00906177
:1058C0009093EB0021E030E0A90102C0440F551F86
:1058D0008A95E2F74093EA001092EA008091EB008B
:1058E0008860E8CF8111ABCF109160051F77809160
:1058F000E3008078812B8093E3008091E800877F2C
:105900008093E8000E94E8298091E80080FFFCCFA6
:105910008091E30080688093E30083E0111101C06F
:1059200082E080935D058BCF8058823008F087CF6E
:1059300080916005909161058C3D53E0950799F544
:1059400083E08A838AE289834FB7F894DE01139655
:1059500020E03EE051E2E32FF0E0509357008491C5
:1059600020FF03C082958F703F5F8F708A30C8F030
:10597000895C90E08D939D932F5F243161F74FBF39
:105980008091E800877F8093E8006AE270E0CE01B2
:1059900001960E94FF288091E8008B778093E800B1
:1059A0004ECF805DE6CF6091620570916305AE01D8
:1059B0004F5F5F4F0E943928BC01892B09F43FCF0C
:1059C0008091E800877F8093E80089819A810E9416
:1059D0005929E1CF803809F032CF8091E800877FE4
:1059E0008093E800809159058093F1001ECF8111CA
:1059F00026CF90916005923008F021CF8091E80089
:105A0000877F8093E800909359050E94E829809150
:105A10005905882331F084E080935D050E94242796
:105A20000ECF8091E30087FDF6CF81E0F5CF08959A
:105A3000CF9380915D05882399F08091E900C09112
:105A4000EC00C795CC27C7958F70C82B1092E90042
:105A50008091E80083FD0E94D02BCF70C093E900B5
:105A6000CF9108950E94382A10925D050895E8EDBF
:105A7000F0E08081806180838AE18A95F1F700C03F
:105A80008091D90081700895991B79E004C0991F15
:105A9000961708F0961B881F7A95C9F78095089588
:105AA000AA1BBB1B51E107C0AA1FBB1FA617B70744
:105AB00010F0A61BB70B881F991F5A95A9F7809560
:105AC0009095BC01CD01089597FB072E16F4009424
:105AD00007D077FD09D00E94502D07FC05D03EF479
